{
  "_format": "hh-sol-artifact-1",
  "contractName": "RoleNFT",
  "sourceName": "contracts/NFT.sol",
  "abi": [
    {
      "inputs": [
        {
          "internalType": "string",
          "name": "name",
          "type": "string"
        },
        {
          "internalType": "string",
          "name": "symbol",
          "type": "string"
        }
      ],
      "stateMutability": "nonpayable",
      "type": "constructor"
    },
    {
      "anonymous": false,
      "inputs": [
        {
          "indexed": true,
          "internalType": "address",
          "name": "owner",
          "type": "address"
        },
        {
          "indexed": true,
          "internalType": "address",
          "name": "approved",
          "type": "address"
        },
        {
          "indexed": true,
          "internalType": "uint256",
          "name": "tokenId",
          "type": "uint256"
        }
      ],
      "name": "Approval",
      "type": "event"
    },
    {
      "anonymous": false,
      "inputs": [
        {
          "indexed": true,
          "internalType": "address",
          "name": "owner",
          "type": "address"
        },
        {
          "indexed": true,
          "internalType": "address",
          "name": "operator",
          "type": "address"
        },
        {
          "indexed": false,
          "internalType": "bool",
          "name": "approved",
          "type": "bool"
        }
      ],
      "name": "ApprovalForAll",
      "type": "event"
    },
    {
      "anonymous": false,
      "inputs": [
        {
          "indexed": true,
          "internalType": "address",
          "name": "previousOwner",
          "type": "address"
        },
        {
          "indexed": true,
          "internalType": "address",
          "name": "newOwner",
          "type": "address"
        }
      ],
      "name": "OwnershipTransferred",
      "type": "event"
    },
    {
      "anonymous": false,
      "inputs": [
        {
          "indexed": true,
          "internalType": "bytes32",
          "name": "role",
          "type": "bytes32"
        },
        {
          "indexed": true,
          "internalType": "bytes32",
          "name": "previousAdminRole",
          "type": "bytes32"
        },
        {
          "indexed": true,
          "internalType": "bytes32",
          "name": "newAdminRole",
          "type": "bytes32"
        }
      ],
      "name": "RoleAdminChanged",
      "type": "event"
    },
    {
      "anonymous": false,
      "inputs": [
        {
          "indexed": true,
          "internalType": "bytes32",
          "name": "role",
          "type": "bytes32"
        },
        {
          "indexed": true,
          "internalType": "address",
          "name": "account",
          "type": "address"
        },
        {
          "indexed": true,
          "internalType": "address",
          "name": "sender",
          "type": "address"
        }
      ],
      "name": "RoleGranted",
      "type": "event"
    },
    {
      "anonymous": false,
      "inputs": [
        {
          "indexed": true,
          "internalType": "bytes32",
          "name": "role",
          "type": "bytes32"
        },
        {
          "indexed": true,
          "internalType": "address",
          "name": "account",
          "type": "address"
        },
        {
          "indexed": true,
          "internalType": "address",
          "name": "sender",
          "type": "address"
        }
      ],
      "name": "RoleRevoked",
      "type": "event"
    },
    {
      "anonymous": false,
      "inputs": [
        {
          "indexed": true,
          "internalType": "address",
          "name": "from",
          "type": "address"
        },
        {
          "indexed": true,
          "internalType": "address",
          "name": "to",
          "type": "address"
        },
        {
          "indexed": true,
          "internalType": "uint256",
          "name": "tokenId",
          "type": "uint256"
        }
      ],
      "name": "Transfer",
      "type": "event"
    },
    {
      "inputs": [],
      "name": "DEFAULT_ADMIN_ROLE",
      "outputs": [
        {
          "internalType": "bytes32",
          "name": "",
          "type": "bytes32"
        }
      ],
      "stateMutability": "view",
      "type": "function"
    },
    {
      "inputs": [
        {
          "internalType": "address",
          "name": "account",
          "type": "address"
        }
      ],
      "name": "addAdmin",
      "outputs": [],
      "stateMutability": "nonpayable",
      "type": "function"
    },
    {
      "inputs": [
        {
          "internalType": "address",
          "name": "to",
          "type": "address"
        },
        {
          "internalType": "uint256",
          "name": "tokenId",
          "type": "uint256"
        }
      ],
      "name": "approve",
      "outputs": [],
      "stateMutability": "nonpayable",
      "type": "function"
    },
    {
      "inputs": [
        {
          "internalType": "address",
          "name": "owner",
          "type": "address"
        }
      ],
      "name": "balanceOf",
      "outputs": [
        {
          "internalType": "uint256",
          "name": "",
          "type": "uint256"
        }
      ],
      "stateMutability": "view",
      "type": "function"
    },
    {
      "inputs": [
        {
          "internalType": "uint256",
          "name": "tokenId",
          "type": "uint256"
        }
      ],
      "name": "burnToken",
      "outputs": [],
      "stateMutability": "nonpayable",
      "type": "function"
    },
    {
      "inputs": [
        {
          "internalType": "uint256",
          "name": "tokenId",
          "type": "uint256"
        }
      ],
      "name": "getApproved",
      "outputs": [
        {
          "internalType": "address",
          "name": "",
          "type": "address"
        }
      ],
      "stateMutability": "view",
      "type": "function"
    },
    {
      "inputs": [
        {
          "internalType": "address",
          "name": "_address",
          "type": "address"
        }
      ],
      "name": "getIdentity",
      "outputs": [
        {
          "components": [
            {
              "internalType": "string",
              "name": "department",
              "type": "string"
            },
            {
              "internalType": "string",
              "name": "role",
              "type": "string"
            }
          ],
          "internalType": "struct Identity",
          "name": "",
          "type": "tuple"
        }
      ],
      "stateMutability": "view",
      "type": "function"
    },
    {
      "inputs": [
        {
          "internalType": "bytes32",
          "name": "role",
          "type": "bytes32"
        }
      ],
      "name": "getRoleAdmin",
      "outputs": [
        {
          "internalType": "bytes32",
          "name": "",
          "type": "bytes32"
        }
      ],
      "stateMutability": "view",
      "type": "function"
    },
    {
      "inputs": [
        {
          "internalType": "bytes32",
          "name": "role",
          "type": "bytes32"
        },
        {
          "internalType": "uint256",
          "name": "index",
          "type": "uint256"
        }
      ],
      "name": "getRoleMember",
      "outputs": [
        {
          "internalType": "address",
          "name": "",
          "type": "address"
        }
      ],
      "stateMutability": "view",
      "type": "function"
    },
    {
      "inputs": [
        {
          "internalType": "bytes32",
          "name": "role",
          "type": "bytes32"
        }
      ],
      "name": "getRoleMemberCount",
      "outputs": [
        {
          "internalType": "uint256",
          "name": "",
          "type": "uint256"
        }
      ],
      "stateMutability": "view",
      "type": "function"
    },
    {
      "inputs": [],
      "name": "getTotalTokenCount",
      "outputs": [
        {
          "internalType": "uint256",
          "name": "",
          "type": "uint256"
        }
      ],
      "stateMutability": "view",
      "type": "function"
    },
    {
      "inputs": [
        {
          "internalType": "bytes32",
          "name": "role",
          "type": "bytes32"
        },
        {
          "internalType": "address",
          "name": "account",
          "type": "address"
        }
      ],
      "name": "grantRole",
      "outputs": [],
      "stateMutability": "nonpayable",
      "type": "function"
    },
    {
      "inputs": [
        {
          "internalType": "bytes32",
          "name": "role",
          "type": "bytes32"
        },
        {
          "internalType": "address",
          "name": "account",
          "type": "address"
        }
      ],
      "name": "hasRole",
      "outputs": [
        {
          "internalType": "bool",
          "name": "",
          "type": "bool"
        }
      ],
      "stateMutability": "view",
      "type": "function"
    },
    {
      "inputs": [
        {
          "internalType": "uint256",
          "name": "",
          "type": "uint256"
        }
      ],
      "name": "idOfIdentity",
      "outputs": [
        {
          "internalType": "string",
          "name": "department",
          "type": "string"
        },
        {
          "internalType": "string",
          "name": "role",
          "type": "string"
        }
      ],
      "stateMutability": "view",
      "type": "function"
    },
    {
      "inputs": [
        {
          "internalType": "address",
          "name": "account",
          "type": "address"
        }
      ],
      "name": "isAdmin",
      "outputs": [
        {
          "internalType": "bool",
          "name": "",
          "type": "bool"
        }
      ],
      "stateMutability": "view",
      "type": "function"
    },
    {
      "inputs": [
        {
          "internalType": "address",
          "name": "owner",
          "type": "address"
        },
        {
          "internalType": "address",
          "name": "operator",
          "type": "address"
        }
      ],
      "name": "isApprovedForAll",
      "outputs": [
        {
          "internalType": "bool",
          "name": "",
          "type": "bool"
        }
      ],
      "stateMutability": "view",
      "type": "function"
    },
    {
      "inputs": [
        {
          "internalType": "address",
          "name": "to",
          "type": "address"
        },
        {
          "internalType": "string",
          "name": "_tokenURI",
          "type": "string"
        },
        {
          "internalType": "string",
          "name": "_department",
          "type": "string"
        },
        {
          "internalType": "string",
          "name": "_role",
          "type": "string"
        }
      ],
      "name": "mint",
      "outputs": [],
      "stateMutability": "nonpayable",
      "type": "function"
    },
    {
      "inputs": [],
      "name": "name",
      "outputs": [
        {
          "internalType": "string",
          "name": "",
          "type": "string"
        }
      ],
      "stateMutability": "view",
      "type": "function"
    },
    {
      "inputs": [],
      "name": "owner",
      "outputs": [
        {
          "internalType": "address",
          "name": "",
          "type": "address"
        }
      ],
      "stateMutability": "view",
      "type": "function"
    },
    {
      "inputs": [
        {
          "internalType": "uint256",
          "name": "tokenId",
          "type": "uint256"
        }
      ],
      "name": "ownerOf",
      "outputs": [
        {
          "internalType": "address",
          "name": "",
          "type": "address"
        }
      ],
      "stateMutability": "view",
      "type": "function"
    },
    {
      "inputs": [],
      "name": "renounceAdminRole",
      "outputs": [],
      "stateMutability": "nonpayable",
      "type": "function"
    },
    {
      "inputs": [],
      "name": "renounceOwnership",
      "outputs": [],
      "stateMutability": "nonpayable",
      "type": "function"
    },
    {
      "inputs": [
        {
          "internalType": "bytes32",
          "name": "role",
          "type": "bytes32"
        },
        {
          "internalType": "address",
          "name": "account",
          "type": "address"
        }
      ],
      "name": "renounceRole",
      "outputs": [],
      "stateMutability": "nonpayable",
      "type": "function"
    },
    {
      "inputs": [
        {
          "internalType": "bytes32",
          "name": "role",
          "type": "bytes32"
        },
        {
          "internalType": "address",
          "name": "account",
          "type": "address"
        }
      ],
      "name": "revokeRole",
      "outputs": [],
      "stateMutability": "nonpayable",
      "type": "function"
    },
    {
      "inputs": [
        {
          "internalType": "address",
          "name": "from",
          "type": "address"
        },
        {
          "internalType": "address",
          "name": "to",
          "type": "address"
        },
        {
          "internalType": "uint256",
          "name": "tokenId",
          "type": "uint256"
        }
      ],
      "name": "safeTransferFrom",
      "outputs": [],
      "stateMutability": "nonpayable",
      "type": "function"
    },
    {
      "inputs": [
        {
          "internalType": "address",
          "name": "from",
          "type": "address"
        },
        {
          "internalType": "address",
          "name": "to",
          "type": "address"
        },
        {
          "internalType": "uint256",
          "name": "tokenId",
          "type": "uint256"
        },
        {
          "internalType": "bytes",
          "name": "data",
          "type": "bytes"
        }
      ],
      "name": "safeTransferFrom",
      "outputs": [],
      "stateMutability": "nonpayable",
      "type": "function"
    },
    {
      "inputs": [
        {
          "internalType": "address",
          "name": "operator",
          "type": "address"
        },
        {
          "internalType": "bool",
          "name": "approved",
          "type": "bool"
        }
      ],
      "name": "setApprovalForAll",
      "outputs": [],
      "stateMutability": "nonpayable",
      "type": "function"
    },
    {
      "inputs": [
        {
          "internalType": "bytes4",
          "name": "interfaceId",
          "type": "bytes4"
        }
      ],
      "name": "supportsInterface",
      "outputs": [
        {
          "internalType": "bool",
          "name": "",
          "type": "bool"
        }
      ],
      "stateMutability": "view",
      "type": "function"
    },
    {
      "inputs": [],
      "name": "symbol",
      "outputs": [
        {
          "internalType": "string",
          "name": "",
          "type": "string"
        }
      ],
      "stateMutability": "view",
      "type": "function"
    },
    {
      "inputs": [
        {
          "internalType": "uint256",
          "name": "index",
          "type": "uint256"
        }
      ],
      "name": "tokenByIndex",
      "outputs": [
        {
          "internalType": "uint256",
          "name": "",
          "type": "uint256"
        }
      ],
      "stateMutability": "view",
      "type": "function"
    },
    {
      "inputs": [
        {
          "internalType": "address",
          "name": "",
          "type": "address"
        }
      ],
      "name": "tokenIdOf",
      "outputs": [
        {
          "internalType": "uint256",
          "name": "",
          "type": "uint256"
        }
      ],
      "stateMutability": "view",
      "type": "function"
    },
    {
      "inputs": [
        {
          "internalType": "address",
          "name": "owner",
          "type": "address"
        },
        {
          "internalType": "uint256",
          "name": "index",
          "type": "uint256"
        }
      ],
      "name": "tokenOfOwnerByIndex",
      "outputs": [
        {
          "internalType": "uint256",
          "name": "",
          "type": "uint256"
        }
      ],
      "stateMutability": "view",
      "type": "function"
    },
    {
      "inputs": [
        {
          "internalType": "uint256",
          "name": "tokenId",
          "type": "uint256"
        }
      ],
      "name": "tokenURI",
      "outputs": [
        {
          "internalType": "string",
          "name": "",
          "type": "string"
        }
      ],
      "stateMutability": "view",
      "type": "function"
    },
    {
      "inputs": [],
      "name": "totalSupply",
      "outputs": [
        {
          "internalType": "uint256",
          "name": "",
          "type": "uint256"
        }
      ],
      "stateMutability": "view",
      "type": "function"
    },
    {
      "inputs": [
        {
          "internalType": "address",
          "name": "from",
          "type": "address"
        },
        {
          "internalType": "address",
          "name": "to",
          "type": "address"
        },
        {
          "internalType": "uint256",
          "name": "tokenId",
          "type": "uint256"
        }
      ],
      "name": "transferFrom",
      "outputs": [],
      "stateMutability": "nonpayable",
      "type": "function"
    },
    {
      "inputs": [
        {
          "internalType": "address",
          "name": "newOwner",
          "type": "address"
        }
      ],
      "name": "transferOwnership",
      "outputs": [],
      "stateMutability": "nonpayable",
      "type": "function"
    },
    {
      "inputs": [
        {
          "internalType": "address",
          "name": "_address",
          "type": "address"
        },
        {
          "internalType": "string",
          "name": "_department",
          "type": "string"
        },
        {
          "internalType": "string",
          "name": "_role",
          "type": "string"
        }
      ],
      "name": "updateIdentity",
      "outputs": [],
      "stateMutability": "nonpayable",
      "type": "function"
    },
    {
      "inputs": [
        {
          "internalType": "uint256",
          "name": "tokenId",
          "type": "uint256"
        },
        {
          "internalType": "string",
          "name": "uri",
          "type": "string"
        }
      ],
      "name": "updateTokenURI",
      "outputs": [],
      "stateMutability": "nonpayable",
      "type": "function"
    }
  ],
  "bytecode": "0x60806040523480156200001157600080fd5b5060405162003677380380620036778339810160408190526200003491620003fb565b8151829082906200004d90600090602085019062000288565b5080516200006390600190602084019062000288565b505050620000806200007a620000c060201b60201c565b620000c4565b62000097600e6200011660201b6200138c1760201c565b620000b8600073c7f2fbc85f84ad8dc8d11b06167c98763c02d5ca6200011f565b5050620004a2565b3390565b600b80546001600160a01b038381166001600160a01b0319831681179093556040519116919082907f8be0079c531659141344cd1fd0a4f28419497f9722a3daafe3b4186f6b6457e090600090a35050565b80546001019055565b6200012b82826200012f565b5050565b6200014682826200017260201b620013951760201c565b6000828152600d602090815260409091206200016d9183906200141b62000216821b17901c565b505050565b6000828152600c602090815260408083206001600160a01b038516845290915290205460ff166200012b576000828152600c602090815260408083206001600160a01b03851684529091529020805460ff19166001179055620001d23390565b6001600160a01b0316816001600160a01b0316837f2f8788117e7eff1d82e926ec794901d17c78024a50270940304540a733656f0d60405160405180910390a45050565b60006200022d836001600160a01b03841662000236565b90505b92915050565b60008181526001830160205260408120546200027f5750815460018181018455600084815260208082209093018490558454848252828601909352604090209190915562000230565b50600062000230565b828054620002969062000465565b90600052602060002090601f016020900481019282620002ba576000855562000305565b82601f10620002d557805160ff191683800117855562000305565b8280016001018555821562000305579182015b8281111562000305578251825591602001919060010190620002e8565b506200031392915062000317565b5090565b5b8082111562000313576000815560010162000318565b634e487b7160e01b600052604160045260246000fd5b600082601f8301126200035657600080fd5b81516001600160401b03808211156200037357620003736200032e565b604051601f8301601f19908116603f011681019082821181831017156200039e576200039e6200032e565b81604052838152602092508683858801011115620003bb57600080fd5b600091505b83821015620003df5785820183015181830184015290820190620003c0565b83821115620003f15760008385830101525b9695505050505050565b600080604083850312156200040f57600080fd5b82516001600160401b03808211156200042757600080fd5b620004358683870162000344565b935060208501519150808211156200044c57600080fd5b506200045b8582860162000344565b9150509250929050565b600181811c908216806200047a57607f821691505b602082108114156200049c57634e487b7160e01b600052602260045260246000fd5b50919050565b6131c580620004b26000396000f3fe608060405234801561001057600080fd5b50600436106102325760003560e01c8063704802751161013057806395d89b41116100b8578063ca15c8731161007c578063ca15c873146104e4578063d547741f146104f7578063e53626671461050a578063e985e9c514610512578063f2fde38b1461054e57600080fd5b806395d89b411461049b578063a217fddf146104a3578063a22cb465146104ab578063b88d4fde146104be578063c87b56dd146104d157600080fd5b80637b47ec1a116100ff5780637b47ec1a1461044957806383b8a5ae1461045c5780638da5cb5b146104645780639010d07c1461047557806391d148541461048857600080fd5b806370480275146103fb57806370a082311461040e578063715018a614610421578063773c02d41461042957600080fd5b806324d7806c116101be57806342842e0e1161018257806342842e0e1461038e5780634a0706be146103a15780634bdb751e146103b45780634f6ccce7146103d55780636352211e146103e857600080fd5b806324d7806c146103225780632f2ff15d146103355780632f745c59146103485780632fea7b811461035b57806336568abe1461037b57600080fd5b806318160ddd1161020557806318160ddd146102b457806318e97fd1146102c6578063215522b7146102d957806323b872dd146102ec578063248a9ca3146102ff57600080fd5b806301ffc9a71461023757806306fdde031461025f578063081812fc14610274578063095ea7b31461029f575b600080fd5b61024a6102453660046129ac565b610561565b60405190151581526020015b60405180910390f35b610267610572565b6040516102569190612a21565b610287610282366004612a34565b610604565b6040516001600160a01b039091168152602001610256565b6102b26102ad366004612a69565b61062b565b005b6008545b604051908152602001610256565b6102b26102d4366004612b3f565b610746565b6102b26102e7366004612b86565b6107cf565b6102b26102fa366004612bfa565b610900565b6102b861030d366004612a34565b6000908152600c602052604090206001015490565b61024a610330366004612c36565b610931565b6102b2610343366004612c51565b61093d565b6102b8610356366004612a69565b610962565b61036e610369366004612c36565b6109f8565b6040516102569190612c7d565b6102b2610389366004612c51565b610bb5565b6102b261039c366004612bfa565b610c2f565b6102b26103af366004612cbf565b610c4a565b6103c76103c2366004612a34565b610dfc565b604051610256929190612d58565b6102b86103e3366004612a34565b610f28565b6102876103f6366004612a34565b610fbb565b6102b2610409366004612c36565b61101b565b6102b861041c366004612c36565b6110a4565b6102b261112a565b6102b8610437366004612c36565b60106020526000908152604090205481565b6102b2610457366004612a34565b61113e565b6102b2611212565b600b546001600160a01b0316610287565b610287610483366004612d7d565b61121d565b61024a610496366004612c51565b61123c565b610267611267565b6102b8600081565b6102b26104b9366004612dad565b611276565b6102b26104cc366004612de4565b611281565b6102676104df366004612a34565b6112b3565b6102b86104f2366004612a34565b6112be565b6102b2610505366004612c51565b6112d5565b6102b86112fa565b61024a610520366004612e54565b6001600160a01b03918216600090815260056020908152604080832093909416825291909152205460ff1690565b6102b261055c366004612c36565b611316565b600061056c82611430565b92915050565b60606000805461058190612e7e565b80601f01602080910402602001604051908101604052809291908181526020018280546105ad90612e7e565b80156105fa5780601f106105cf576101008083540402835291602001916105fa565b820191906000526020600020905b8154815290600101906020018083116105dd57829003601f168201915b5050505050905090565b600061060f82611455565b506000908152600460205260409020546001600160a01b031690565b600061063682610fbb565b9050806001600160a01b0316836001600160a01b031614156106a95760405162461bcd60e51b815260206004820152602160248201527f4552433732313a20617070726f76616c20746f2063757272656e74206f776e656044820152603960f91b60648201526084015b60405180910390fd5b336001600160a01b03821614806106c557506106c58133610520565b6107375760405162461bcd60e51b815260206004820152603d60248201527f4552433732313a20617070726f76652063616c6c6572206973206e6f7420746f60448201527f6b656e206f776e6572206f7220617070726f76656420666f7220616c6c00000060648201526084016106a0565b61074183836114b4565b505050565b604051630935e01b60e21b815233600482015230906324d7806c90602401602060405180830381865afa158015610781573d6000803e3d6000fd5b505050506040513d601f19601f820116820180604052508101906107a59190612eb9565b6107c15760405162461bcd60e51b81526004016106a090612ed6565b6107cb8282611522565b5050565b604051630935e01b60e21b815233600482015230906324d7806c90602401602060405180830381865afa15801561080a573d6000803e3d6000fd5b505050506040513d601f19601f8201168201806040525081019061082e9190612eb9565b61084a5760405162461bcd60e51b81526004016106a090612ed6565b6001600160a01b038316600090815260106020526040902054806108a85760405162461bcd60e51b8152602060048201526015602482015274151bdad95b881a59081a5cc81b9bdd08195e1a5cdd605a1b60448201526064016106a0565b60408051808201825284815260208082018590526000848152600f82529290922081518051929391926108de92849201906128c7565b5060208281015180516108f792600185019201906128c7565b50505050505050565b61090a33826115bc565b6109265760405162461bcd60e51b81526004016106a090612f06565b61074183838361163b565b600061056c818361123c565b6000828152600c60205260409020600101546109588161169d565b61074183836116a7565b600061096d836110a4565b82106109cf5760405162461bcd60e51b815260206004820152602b60248201527f455243373231456e756d657261626c653a206f776e657220696e646578206f7560448201526a74206f6620626f756e647360a81b60648201526084016106a0565b506001600160a01b03919091166000908152600660209081526040808320938352929052205490565b60408051808201909152606080825260208201526001600160a01b03821660009081526010602052604090205480610a725760405162461bcd60e51b815260206004820152601860248201527f4e6f20746f6b656e20666f72207468652061646472657373000000000000000060448201526064016106a0565b6000818152600f6020526040908190208151808301909252805482908290610a9990612e7e565b80601f0160208091040260200160405190810160405280929190818152602001828054610ac590612e7e565b8015610b125780601f10610ae757610100808354040283529160200191610b12565b820191906000526020600020905b815481529060010190602001808311610af557829003601f168201915b50505050508152602001600182018054610b2b90612e7e565b80601f0160208091040260200160405190810160405280929190818152602001828054610b5790612e7e565b8015610ba45780601f10610b7957610100808354040283529160200191610ba4565b820191906000526020600020905b815481529060010190602001808311610b8757829003601f168201915b505050505081525050915050919050565b6001600160a01b0381163314610c255760405162461bcd60e51b815260206004820152602f60248201527f416363657373436f6e74726f6c3a2063616e206f6e6c792072656e6f756e636560448201526e103937b632b9903337b91039b2b63360891b60648201526084016106a0565b6107cb82826116c9565b61074183838360405180602001604052806000815250611281565b604051630935e01b60e21b815233600482015230906324d7806c90602401602060405180830381865afa158015610c85573d6000803e3d6000fd5b505050506040513d601f19601f82011682018060405250810190610ca99190612eb9565b610cc55760405162461bcd60e51b81526004016106a090612ed6565b6001600160a01b0384166000908152601060205260409020548015610d4757610cee8185611522565b60408051808201825284815260208082018590526000848152600f8252929092208151805192939192610d2492849201906128c7565b506020828101518051610d3d92600185019201906128c7565b5090505050610df6565b610d5985610d54600e5490565b6116eb565b610d6b610d65600e5490565b85611522565b604051806040016040528084815260200183815250600f6000610d8d600e5490565b8152602080820192909252604001600020825180519192610db3928492909101906128c7565b506020828101518051610dcc92600185019201906128c7565b5050600e80546001600160a01b03881660009081526010602052604090208190556001019055505b505b50505050565b600f60205260009081526040902080548190610e1790612e7e565b80601f0160208091040260200160405190810160405280929190818152602001828054610e4390612e7e565b8015610e905780601f10610e6557610100808354040283529160200191610e90565b820191906000526020600020905b815481529060010190602001808311610e7357829003601f168201915b505050505090806001018054610ea590612e7e565b80601f0160208091040260200160405190810160405280929190818152602001828054610ed190612e7e565b8015610f1e5780601f10610ef357610100808354040283529160200191610f1e565b820191906000526020600020905b815481529060010190602001808311610f0157829003601f168201915b5050505050905082565b6000610f3360085490565b8210610f965760405162461bcd60e51b815260206004820152602c60248201527f455243373231456e756d657261626c653a20676c6f62616c20696e646578206f60448201526b7574206f6620626f756e647360a01b60648201526084016106a0565b60088281548110610fa957610fa9612f53565b90600052602060002001549050919050565b6000818152600260205260408120546001600160a01b03168061056c5760405162461bcd60e51b8152602060048201526018602482015277115490cdcc8c4e881a5b9d985b1a59081d1bdad95b88125160421b60448201526064016106a0565b604051630935e01b60e21b815233600482015230906324d7806c90602401602060405180830381865afa158015611056573d6000803e3d6000fd5b505050506040513d601f19601f8201168201806040525081019061107a9190612eb9565b6110965760405162461bcd60e51b81526004016106a090612ed6565b6110a160008261093d565b50565b60006001600160a01b03821661110e5760405162461bcd60e51b815260206004820152602960248201527f4552433732313a2061646472657373207a65726f206973206e6f7420612076616044820152683634b21037bbb732b960b91b60648201526084016106a0565b506001600160a01b031660009081526003602052604090205490565b611132611705565b61113c600061175f565b565b604051630935e01b60e21b815233600482015230906324d7806c90602401602060405180830381865afa158015611179573d6000803e3d6000fd5b505050506040513d601f19601f8201168201806040525081019061119d9190612eb9565b6111b95760405162461bcd60e51b81526004016106a090612ed6565b60006111c482610fbb565b6001600160a01b0381166000908152601060209081526040808320839055858352600f90915281209192506111f9828261294b565b61120760018301600061294b565b50506107cb826117b1565b61113c600033610bb5565b6000828152600d6020526040812061123590836117ba565b9392505050565b6000918252600c602090815260408084206001600160a01b0393909316845291905290205460ff1690565b60606001805461058190612e7e565b6107cb3383836117c6565b61128b33836115bc565b6112a75760405162461bcd60e51b81526004016106a090612f06565b610df684848484611895565b606061056c826118c8565b6000818152600d6020526040812061056c906119d1565b6000828152600c60205260409020600101546112f08161169d565b61074183836116c9565b60006001611307600e5490565b6113119190612f7f565b905090565b61131e611705565b6001600160a01b0381166113835760405162461bcd60e51b815260206004820152602660248201527f4f776e61626c653a206e6577206f776e657220697320746865207a65726f206160448201526564647265737360d01b60648201526084016106a0565b6110a18161175f565b80546001019055565b61139f828261123c565b6107cb576000828152600c602090815260408083206001600160a01b03851684529091529020805460ff191660011790556113d73390565b6001600160a01b0316816001600160a01b0316837f2f8788117e7eff1d82e926ec794901d17c78024a50270940304540a733656f0d60405160405180910390a45050565b6000611235836001600160a01b0384166119db565b60006001600160e01b03198216635a05180f60e01b148061056c575061056c82611a2a565b6000818152600260205260409020546001600160a01b03166110a15760405162461bcd60e51b8152602060048201526018602482015277115490cdcc8c4e881a5b9d985b1a59081d1bdad95b88125160421b60448201526064016106a0565b600081815260046020526040902080546001600160a01b0319166001600160a01b03841690811790915581906114e982610fbb565b6001600160a01b03167f8c5be1e5ebec7d5bd14f71427d1e84f3dd0314c0f7b2291e5b200ac8c7c3b92560405160405180910390a45050565b6000828152600260205260409020546001600160a01b031661159d5760405162461bcd60e51b815260206004820152602e60248201527f45524337323155524953746f726167653a2055524920736574206f66206e6f6e60448201526d32bc34b9ba32b73a103a37b5b2b760911b60648201526084016106a0565b6000828152600a602090815260409091208251610741928401906128c7565b6000806115c883610fbb565b9050806001600160a01b0316846001600160a01b0316148061160f57506001600160a01b0380821660009081526005602090815260408083209388168352929052205460ff165b806116335750836001600160a01b031661162884610604565b6001600160a01b0316145b949350505050565b6001600160a01b038316156116925760405162461bcd60e51b815260206004820152601c60248201527f596f752063616e2774207472616e736665722074686973204e46542e0000000060448201526064016106a0565b610741838383611a4f565b6110a18133611bc0565b6116b18282611395565b6000828152600d60205260409020610741908261141b565b6116d38282611c19565b6000828152600d602052604090206107419082611c80565b6107cb828260405180602001604052806000815250611c95565b600b546001600160a01b0316331461113c5760405162461bcd60e51b815260206004820181905260248201527f4f776e61626c653a2063616c6c6572206973206e6f7420746865206f776e657260448201526064016106a0565b600b80546001600160a01b038381166001600160a01b0319831681179093556040519116919082907f8be0079c531659141344cd1fd0a4f28419497f9722a3daafe3b4186f6b6457e090600090a35050565b6110a181611cc8565b60006112358383611d08565b816001600160a01b0316836001600160a01b031614156118285760405162461bcd60e51b815260206004820152601960248201527f4552433732313a20617070726f766520746f2063616c6c65720000000000000060448201526064016106a0565b6001600160a01b03838116600081815260056020908152604080832094871680845294825291829020805460ff191686151590811790915591519182527f17307eab39ab6107e8899845ad3d59bd9653f200f220920489ca2b5937696c31910160405180910390a3505050565b6118a084848461163b565b6118ac84848484611d32565b610df65760405162461bcd60e51b81526004016106a090612f96565b60606118d382611455565b6000828152600a6020526040812080546118ec90612e7e565b80601f016020809104026020016040519081016040528092919081815260200182805461191890612e7e565b80156119655780601f1061193a57610100808354040283529160200191611965565b820191906000526020600020905b81548152906001019060200180831161194857829003601f168201915b50505050509050600061198360408051602081019091526000815290565b9050805160001415611996575092915050565b8151156119c85780826040516020016119b0929190612fe8565b60405160208183030381529060405292505050919050565b61163384611e30565b600061056c825490565b6000818152600183016020526040812054611a225750815460018181018455600084815260208082209093018490558454848252828601909352604090209190915561056c565b50600061056c565b60006001600160e01b03198216637965db0b60e01b148061056c575061056c82611ea3565b826001600160a01b0316611a6282610fbb565b6001600160a01b031614611a885760405162461bcd60e51b81526004016106a090613017565b6001600160a01b038216611aea5760405162461bcd60e51b8152602060048201526024808201527f4552433732313a207472616e7366657220746f20746865207a65726f206164646044820152637265737360e01b60648201526084016106a0565b611af78383836001611ec8565b826001600160a01b0316611b0a82610fbb565b6001600160a01b031614611b305760405162461bcd60e51b81526004016106a090613017565b600081815260046020908152604080832080546001600160a01b03199081169091556001600160a01b0387811680865260038552838620805460001901905590871680865283862080546001019055868652600290945282852080549092168417909155905184937fddf252ad1be2c89b69c2b068fc378daa952ba7f163c4a11628f55a4df523b3ef91a4505050565b611bca828261123c565b6107cb57611bd781611ed4565b611be2836020611ee6565b604051602001611bf392919061305c565b60408051601f198184030181529082905262461bcd60e51b82526106a091600401612a21565b611c23828261123c565b156107cb576000828152600c602090815260408083206001600160a01b0385168085529252808320805460ff1916905551339285917ff6391f5c32d9c69d2a47ea670b442974b53935d1edc7fd64eb21e047a839171b9190a45050565b6000611235836001600160a01b038416612082565b611c9f8383612175565b611cac6000848484611d32565b6107415760405162461bcd60e51b81526004016106a090612f96565b611cd18161230e565b6000818152600a602052604090208054611cea90612e7e565b1590506110a1576000818152600a602052604081206110a19161294b565b6000826000018281548110611d1f57611d1f612f53565b9060005260206000200154905092915050565b60006001600160a01b0384163b15611e2557604051630a85bd0160e11b81526001600160a01b0385169063150b7a0290611d769033908990889088906004016130d1565b6020604051808303816000875af1925050508015611db1575060408051601f3d908101601f19168201909252611dae9181019061310e565b60015b611e0b573d808015611ddf576040519150601f19603f3d011682016040523d82523d6000602084013e611de4565b606091505b508051611e035760405162461bcd60e51b81526004016106a090612f96565b805181602001fd5b6001600160e01b031916630a85bd0160e11b149050611633565b506001949350505050565b6060611e3b82611455565b6000611e5260408051602081019091526000815290565b90506000815111611e725760405180602001604052806000815250611235565b80611e7c846123b1565b604051602001611e8d929190612fe8565b6040516020818303038152906040529392505050565b60006001600160e01b0319821663780e9d6360e01b148061056c575061056c8261244e565b610df68484848461249e565b606061056c6001600160a01b03831660145b60606000611ef583600261312b565b611f0090600261314a565b67ffffffffffffffff811115611f1857611f18612a93565b6040519080825280601f01601f191660200182016040528015611f42576020820181803683370190505b509050600360fc1b81600081518110611f5d57611f5d612f53565b60200101906001600160f81b031916908160001a905350600f60fb1b81600181518110611f8c57611f8c612f53565b60200101906001600160f81b031916908160001a9053506000611fb084600261312b565b611fbb90600161314a565b90505b6001811115612033576f181899199a1a9b1b9c1cb0b131b232b360811b85600f1660108110611fef57611fef612f53565b1a60f81b82828151811061200557612005612f53565b60200101906001600160f81b031916908160001a90535060049490941c9361202c81613162565b9050611fbe565b5083156112355760405162461bcd60e51b815260206004820181905260248201527f537472696e67733a20686578206c656e67746820696e73756666696369656e7460448201526064016106a0565b6000818152600183016020526040812054801561216b5760006120a6600183612f7f565b85549091506000906120ba90600190612f7f565b905081811461211f5760008660000182815481106120da576120da612f53565b90600052602060002001549050808760000184815481106120fd576120fd612f53565b6000918252602080832090910192909255918252600188019052604090208390555b855486908061213057612130613179565b60019003818190600052602060002001600090559055856001016000868152602001908152602001600020600090556001935050505061056c565b600091505061056c565b6001600160a01b0382166121cb5760405162461bcd60e51b815260206004820181905260248201527f4552433732313a206d696e7420746f20746865207a65726f206164647265737360448201526064016106a0565b6000818152600260205260409020546001600160a01b0316156122305760405162461bcd60e51b815260206004820152601c60248201527f4552433732313a20746f6b656e20616c7265616479206d696e7465640000000060448201526064016106a0565b61223e600083836001611ec8565b6000818152600260205260409020546001600160a01b0316156122a35760405162461bcd60e51b815260206004820152601c60248201527f4552433732313a20746f6b656e20616c7265616479206d696e7465640000000060448201526064016106a0565b6001600160a01b038216600081815260036020908152604080832080546001019055848352600290915280822080546001600160a01b0319168417905551839291907fddf252ad1be2c89b69c2b068fc378daa952ba7f163c4a11628f55a4df523b3ef908290a45050565b600061231982610fbb565b9050612329816000846001611ec8565b61233282610fbb565b600083815260046020908152604080832080546001600160a01b03199081169091556001600160a01b0385168085526003845282852080546000190190558785526002909352818420805490911690555192935084927fddf252ad1be2c89b69c2b068fc378daa952ba7f163c4a11628f55a4df523b3ef908390a45050565b606060006123be836125d7565b600101905060008167ffffffffffffffff8111156123de576123de612a93565b6040519080825280601f01601f191660200182016040528015612408576020820181803683370190505b5090508181016020015b600019016f181899199a1a9b1b9c1cb0b131b232b360811b600a86061a8153600a850494508461244157612446565b612412565b509392505050565b60006001600160e01b031982166380ac58cd60e01b148061247f57506001600160e01b03198216635b5e139f60e01b145b8061056c57506301ffc9a760e01b6001600160e01b031983161461056c565b6124aa848484846126af565b60018111156125195760405162461bcd60e51b815260206004820152603560248201527f455243373231456e756d657261626c653a20636f6e7365637574697665207472604482015274185b9cd9995c9cc81b9bdd081cdd5c1c1bdc9d1959605a1b60648201526084016106a0565b816001600160a01b0385166125755761257081600880546000838152600960205260408120829055600182018355919091527ff3f7a9fe364faab93b216da50a3214154f22a0a2b415b23a84c8169e8b636ee30155565b612598565b836001600160a01b0316856001600160a01b031614612598576125988582612737565b6001600160a01b0384166125b4576125af816127d4565b610df4565b846001600160a01b0316846001600160a01b031614610df457610df48482612883565b60008072184f03e93ff9f4daa797ed6e38ed64bf6a1f0160401b83106126165772184f03e93ff9f4daa797ed6e38ed64bf6a1f0160401b830492506040015b6d04ee2d6d415b85acef81000000008310612642576d04ee2d6d415b85acef8100000000830492506020015b662386f26fc10000831061266057662386f26fc10000830492506010015b6305f5e1008310612678576305f5e100830492506008015b612710831061268c57612710830492506004015b6064831061269e576064830492506002015b600a831061056c5760010192915050565b6001811115610df6576001600160a01b038416156126f5576001600160a01b038416600090815260036020526040812080548392906126ef908490612f7f565b90915550505b6001600160a01b03831615610df6576001600160a01b0383166000908152600360205260408120805483929061272c90849061314a565b909155505050505050565b60006001612744846110a4565b61274e9190612f7f565b6000838152600760205260409020549091508082146127a1576001600160a01b03841660009081526006602090815260408083208584528252808320548484528184208190558352600790915290208190555b5060009182526007602090815260408084208490556001600160a01b039094168352600681528383209183525290812055565b6008546000906127e690600190612f7f565b6000838152600960205260408120546008805493945090928490811061280e5761280e612f53565b90600052602060002001549050806008838154811061282f5761282f612f53565b600091825260208083209091019290925582815260099091526040808220849055858252812055600880548061286757612867613179565b6001900381819060005260206000200160009055905550505050565b600061288e836110a4565b6001600160a01b039093166000908152600660209081526040808320868452825280832085905593825260079052919091209190915550565b8280546128d390612e7e565b90600052602060002090601f0160209004810192826128f5576000855561293b565b82601f1061290e57805160ff191683800117855561293b565b8280016001018555821561293b579182015b8281111561293b578251825591602001919060010190612920565b50612947929150612981565b5090565b50805461295790612e7e565b6000825580601f10612967575050565b601f0160209004906000526020600020908101906110a191905b5b808211156129475760008155600101612982565b6001600160e01b0319811681146110a157600080fd5b6000602082840312156129be57600080fd5b813561123581612996565b60005b838110156129e45781810151838201526020016129cc565b83811115610df65750506000910152565b60008151808452612a0d8160208601602086016129c9565b601f01601f19169290920160200192915050565b60208152600061123560208301846129f5565b600060208284031215612a4657600080fd5b5035919050565b80356001600160a01b0381168114612a6457600080fd5b919050565b60008060408385031215612a7c57600080fd5b612a8583612a4d565b946020939093013593505050565b634e487b7160e01b600052604160045260246000fd5b600067ffffffffffffffff80841115612ac457612ac4612a93565b604051601f8501601f19908116603f01168101908282118183101715612aec57612aec612a93565b81604052809350858152868686011115612b0557600080fd5b858560208301376000602087830101525050509392505050565b600082601f830112612b3057600080fd5b61123583833560208501612aa9565b60008060408385031215612b5257600080fd5b82359150602083013567ffffffffffffffff811115612b7057600080fd5b612b7c85828601612b1f565b9150509250929050565b600080600060608486031215612b9b57600080fd5b612ba484612a4d565b9250602084013567ffffffffffffffff80821115612bc157600080fd5b612bcd87838801612b1f565b93506040860135915080821115612be357600080fd5b50612bf086828701612b1f565b9150509250925092565b600080600060608486031215612c0f57600080fd5b612c1884612a4d565b9250612c2660208501612a4d565b9150604084013590509250925092565b600060208284031215612c4857600080fd5b61123582612a4d565b60008060408385031215612c6457600080fd5b82359150612c7460208401612a4d565b90509250929050565b602081526000825160406020840152612c9960608401826129f5565b90506020840151601f19848303016040850152612cb682826129f5565b95945050505050565b60008060008060808587031215612cd557600080fd5b612cde85612a4d565b9350602085013567ffffffffffffffff80821115612cfb57600080fd5b612d0788838901612b1f565b94506040870135915080821115612d1d57600080fd5b612d2988838901612b1f565b93506060870135915080821115612d3f57600080fd5b50612d4c87828801612b1f565b91505092959194509250565b604081526000612d6b60408301856129f5565b8281036020840152612cb681856129f5565b60008060408385031215612d9057600080fd5b50508035926020909101359150565b80151581146110a157600080fd5b60008060408385031215612dc057600080fd5b612dc983612a4d565b91506020830135612dd981612d9f565b809150509250929050565b60008060008060808587031215612dfa57600080fd5b612e0385612a4d565b9350612e1160208601612a4d565b925060408501359150606085013567ffffffffffffffff811115612e3457600080fd5b8501601f81018713612e4557600080fd5b612d4c87823560208401612aa9565b60008060408385031215612e6757600080fd5b612e7083612a4d565b9150612c7460208401612a4d565b600181811c90821680612e9257607f821691505b60208210811415612eb357634e487b7160e01b600052602260045260246000fd5b50919050565b600060208284031215612ecb57600080fd5b815161123581612d9f565b6020808252601690820152752932b9ba3934b1ba32b2103a379036b2b6b132b9399760511b604082015260600190565b6020808252602d908201527f4552433732313a2063616c6c6572206973206e6f7420746f6b656e206f776e6560408201526c1c881bdc88185c1c1c9bdd9959609a1b606082015260800190565b634e487b7160e01b600052603260045260246000fd5b634e487b7160e01b600052601160045260246000fd5b600082821015612f9157612f91612f69565b500390565b60208082526032908201527f4552433732313a207472616e7366657220746f206e6f6e20455243373231526560408201527131b2b4bb32b91034b6b83632b6b2b73a32b960711b606082015260800190565b60008351612ffa8184602088016129c9565b83519083019061300e8183602088016129c9565b01949350505050565b60208082526025908201527f4552433732313a207472616e736665722066726f6d20696e636f72726563742060408201526437bbb732b960d91b606082015260800190565b7f416363657373436f6e74726f6c3a206163636f756e74200000000000000000008152600083516130948160178501602088016129c9565b7001034b99036b4b9b9b4b733903937b6329607d1b60179184019182015283516130c58160288401602088016129c9565b01602801949350505050565b6001600160a01b0385811682528416602082015260408101839052608060608201819052600090613104908301846129f5565b9695505050505050565b60006020828403121561312057600080fd5b815161123581612996565b600081600019048311821515161561314557613145612f69565b500290565b6000821982111561315d5761315d612f69565b500190565b60008161317157613171612f69565b506000190190565b634e487b7160e01b600052603160045260246000fdfea264697066735822122008b875f9b00c09fe501b3be4ce6fc6cf1160a189fd11aeafcdfd2688ac6fc9f864736f6c634300080b0033",
  "linkReferences": {},
  "deployedLinkReferences": {}
}