{
  "_format": "hh-sol-artifact-1",
  "contractName": "DAO",
  "sourceName": "contracts/Proposal.sol",
  "abi": [
    {
      "inputs": [
        {
          "internalType": "address",
          "name": "_roleNFT",
          "type": "address"
        }
      ],
      "stateMutability": "nonpayable",
      "type": "constructor"
    },
    {
      "anonymous": false,
      "inputs": [
        {
          "indexed": true,
          "internalType": "address",
          "name": "previousOwner",
          "type": "address"
        },
        {
          "indexed": true,
          "internalType": "address",
          "name": "newOwner",
          "type": "address"
        }
      ],
      "name": "OwnershipTransferred",
      "type": "event"
    },
    {
      "inputs": [
        {
          "internalType": "uint256",
          "name": "_level",
          "type": "uint256"
        },
        {
          "internalType": "string",
          "name": "_role",
          "type": "string"
        }
      ],
      "name": "addPermission",
      "outputs": [],
      "stateMutability": "nonpayable",
      "type": "function"
    },
    {
      "inputs": [
        {
          "internalType": "uint256",
          "name": "index",
          "type": "uint256"
        }
      ],
      "name": "approveProposal",
      "outputs": [],
      "stateMutability": "nonpayable",
      "type": "function"
    },
    {
      "inputs": [
        {
          "internalType": "string",
          "name": "_contentURI",
          "type": "string"
        },
        {
          "internalType": "bool",
          "name": "_isPublic",
          "type": "bool"
        }
      ],
      "name": "createProposal",
      "outputs": [],
      "stateMutability": "nonpayable",
      "type": "function"
    },
    {
      "inputs": [
        {
          "internalType": "uint256",
          "name": "_level",
          "type": "uint256"
        },
        {
          "internalType": "uint256",
          "name": "index",
          "type": "uint256"
        }
      ],
      "name": "deletePermission",
      "outputs": [],
      "stateMutability": "nonpayable",
      "type": "function"
    },
    {
      "inputs": [
        {
          "internalType": "uint256",
          "name": "index",
          "type": "uint256"
        }
      ],
      "name": "deleteProposal",
      "outputs": [],
      "stateMutability": "nonpayable",
      "type": "function"
    },
    {
      "inputs": [
        {
          "internalType": "uint256",
          "name": "start",
          "type": "uint256"
        },
        {
          "internalType": "uint256",
          "name": "end",
          "type": "uint256"
        }
      ],
      "name": "getAllProposal",
      "outputs": [
        {
          "components": [
            {
              "internalType": "address",
              "name": "creator",
              "type": "address"
            },
            {
              "internalType": "string",
              "name": "contentURL",
              "type": "string"
            },
            {
              "internalType": "uint256",
              "name": "level",
              "type": "uint256"
            },
            {
              "internalType": "bool",
              "name": "isRejected",
              "type": "bool"
            },
            {
              "internalType": "bool",
              "name": "isPublic",
              "type": "bool"
            }
          ],
          "internalType": "struct DAO.Proposal[]",
          "name": "",
          "type": "tuple[]"
        }
      ],
      "stateMutability": "view",
      "type": "function"
    },
    {
      "inputs": [
        {
          "internalType": "uint256",
          "name": "_level",
          "type": "uint256"
        }
      ],
      "name": "getPermissionsOfLevel",
      "outputs": [
        {
          "internalType": "bytes32[]",
          "name": "",
          "type": "bytes32[]"
        }
      ],
      "stateMutability": "view",
      "type": "function"
    },
    {
      "inputs": [],
      "name": "getProposalCount",
      "outputs": [
        {
          "internalType": "uint256",
          "name": "",
          "type": "uint256"
        }
      ],
      "stateMutability": "view",
      "type": "function"
    },
    {
      "inputs": [],
      "name": "owner",
      "outputs": [
        {
          "internalType": "address",
          "name": "",
          "type": "address"
        }
      ],
      "stateMutability": "view",
      "type": "function"
    },
    {
      "inputs": [
        {
          "internalType": "uint256",
          "name": "index",
          "type": "uint256"
        }
      ],
      "name": "rejectProposal",
      "outputs": [],
      "stateMutability": "nonpayable",
      "type": "function"
    },
    {
      "inputs": [],
      "name": "renounceOwnership",
      "outputs": [],
      "stateMutability": "nonpayable",
      "type": "function"
    },
    {
      "inputs": [],
      "name": "roleNFT",
      "outputs": [
        {
          "internalType": "contract IRoleNFT",
          "name": "",
          "type": "address"
        }
      ],
      "stateMutability": "view",
      "type": "function"
    },
    {
      "inputs": [
        {
          "internalType": "address",
          "name": "_roleNFT",
          "type": "address"
        }
      ],
      "name": "setRoleNFT",
      "outputs": [],
      "stateMutability": "nonpayable",
      "type": "function"
    },
    {
      "inputs": [
        {
          "internalType": "address",
          "name": "newOwner",
          "type": "address"
        }
      ],
      "name": "transferOwnership",
      "outputs": [],
      "stateMutability": "nonpayable",
      "type": "function"
    }
  ],
  "bytecode": "0x608060405234801561001057600080fd5b5060405161168738038061168783398101604081905261002f916100ad565b6100383361005d565b600180546001600160a01b0319166001600160a01b03929092169190911790556100dd565b600080546001600160a01b038381166001600160a01b0319831681178455604051919092169283917f8be0079c531659141344cd1fd0a4f28419497f9722a3daafe3b4186f6b6457e09190a35050565b6000602082840312156100bf57600080fd5b81516001600160a01b03811681146100d657600080fd5b9392505050565b61159b806100ec6000396000f3fe608060405234801561001057600080fd5b50600436106100ea5760003560e01c8063a9aba8181161008c578063c41f9b0c11610066578063c41f9b0c146101d7578063c597949c146101ea578063ee593070146101fd578063f2fde38b1461021057600080fd5b8063a9aba81814610193578063bc28d878146101b3578063c08cc02d146101c657600080fd5b80638259d553116100c85780638259d553146101355780638da5cb5b14610148578063971afbf21461016d57806398951b561461018057600080fd5b8063262feb9e146100ef57806363c7da4714610118578063715018a61461012d575b600080fd5b6101026100fd366004610fd3565b610223565b60405161010f9190611025565b60405180910390f35b61012b6101263660046110e5565b610414565b005b61012b6104be565b61012b610143366004611115565b6104d2565b6000546001600160a01b03165b6040516001600160a01b03909116815260200161010f565b61012b61017b366004610fd3565b6106b5565b61012b61018e366004611115565b6107e1565b6101a66101a1366004611115565b6109e6565b60405161010f919061112e565b61012b6101c1366004611115565b610a48565b60025460405190815260200161010f565b61012b6101e5366004611237565b610b90565b600154610155906001600160a01b031681565b61012b61020b36600461128c565b610c67565b61012b61021e3660046110e5565b610d62565b6002546060908211156102515760405162461bcd60e51b8152600401610248906112de565b60405180910390fd5b600061025d848461131b565b67ffffffffffffffff81111561027557610275611172565b6040519080825280602002602001820160405280156102ce57816020015b6040805160a0810182526000808252606060208084018290529383018290528201819052608082015282526000199092019101816102935790505b509050835b8381101561040c57600281815481106102ee576102ee611332565b60009182526020918290206040805160a0810190915260049092020180546001600160a01b03168252600181018054929391929184019161032e90611348565b80601f016020809104026020016040519081016040528092919081815260200182805461035a90611348565b80156103a75780601f1061037c576101008083540402835291602001916103a7565b820191906000526020600020905b81548152906001019060200180831161038a57829003601f168201915b50505091835250506002820154602082015260039091015460ff8082161515604084015261010090910416151560609091015282518390839081106103ee576103ee611332565b6020026020010181905250808061040490611383565b9150506102d3565b509392505050565b600154604051630935e01b60e21b81523360048201526001600160a01b03909116906324d7806c90602401602060405180830381865afa15801561045c573d6000803e3d6000fd5b505050506040513d601f19601f82011682018060405250810190610480919061139e565b61049c5760405162461bcd60e51b8152600401610248906113bb565b600180546001600160a01b0319166001600160a01b0392909216919091179055565b6104c6610ddb565b6104d06000610e35565b565b600154604051630935e01b60e21b81523360048201526001600160a01b03909116906324d7806c90602401602060405180830381865afa15801561051a573d6000803e3d6000fd5b505050506040513d601f19601f8201168201806040525081019061053e919061139e565b61055a5760405162461bcd60e51b8152600401610248906113bb565b600254811061057b5760405162461bcd60e51b8152600401610248906112de565b6002805461058b9060019061131b565b8154811061059b5761059b611332565b9060005260206000209060040201600282815481106105bc576105bc611332565b60009182526020909120825460049092020180546001600160a01b0319166001600160a01b0390921691909117815560018083018054918301916105ff90611348565b61060a929190610e85565b50600282810154828201556003928301805493909201805460ff948516151560ff19821681178355935461010090819004909516151590940261ff001990931661ffff19909416939093179190911790915580548061066b5761066b6113eb565b60008281526020812060046000199093019283020180546001600160a01b03191681559061069c6001830182610f10565b5060006002820155600301805461ffff19169055905550565b600154604051630935e01b60e21b81523360048201526001600160a01b03909116906324d7806c90602401602060405180830381865afa1580156106fd573d6000803e3d6000fd5b505050506040513d601f19601f82011682018060405250810190610721919061139e565b61073d5760405162461bcd60e51b8152600401610248906113bb565b60008281526003602052604090208054821061076b5760405162461bcd60e51b8152600401610248906112de565b8054819061077b9060019061131b565b8154811061078b5761078b611332565b90600052602060002001548183815481106107a8576107a8611332565b9060005260206000200181905550808054806107c6576107c66113eb565b60019003818190600052602060002001600090559055505050565b600281815481106107f4576107f4611332565b600091825260209091206003600490920201015460ff16156108585760405162461bcd60e51b815260206004820152601960248201527f546869732070726f706f73616c2069732072656a6563746564000000000000006044820152606401610248565b60006002828154811061086d5761086d611332565b600091825260208220600154604051632fea7b8160e01b8152336004808301919091529390930290910193506001600160a01b031690632fea7b8190602401600060405180830381865afa1580156108c9573d6000803e3d6000fd5b505050506040513d6000823e601f3d908101601f191682016040526108f1919081019061144e565b805160208083015160405193945060009361090d9392016114f5565b60405160208183030381529060405280519060200120905060005b60028401546000908152600360205260409020548110156109ad576002840154600090815260036020526040902080548290811061096857610968611332565b906000526020600020015482141561099b57600184600201600082825461098f9190611531565b90915550505050505050565b806109a581611383565b915050610928565b5060405162461bcd60e51b815260206004820152600d60248201526c2737903832b936b4b9b9b4b7b760991b6044820152606401610248565b600081815260036020908152604091829020805483518184028101840190945280845260609392830182828015610a3c57602002820191906000526020600020905b815481526020019060010190808311610a28575b50505050509050919050565b600060028281548110610a5d57610a5d611332565b600091825260208220600154604051632fea7b8160e01b8152336004808301919091529390930290910193506001600160a01b031690632fea7b8190602401600060405180830381865afa158015610ab9573d6000803e3d6000fd5b505050506040513d6000823e601f3d908101601f19168201604052610ae1919081019061144e565b8051602080830151604051939450600093610afd9392016114f5565b60405160208183030381529060405280519060200120905060005b60028401546000908152600360205260409020548110156109ad5760028401546000908152600360205260409020805482908110610b5857610b58611332565b9060005260206000200154821415610b7e57505050600301805460ff1916600117905550565b80610b8881611383565b915050610b18565b600154604051630935e01b60e21b81523360048201526001600160a01b03909116906324d7806c90602401602060405180830381865afa158015610bd8573d6000803e3d6000fd5b505050506040513d601f19601f82011682018060405250810190610bfc919061139e565b610c185760405162461bcd60e51b8152600401610248906113bb565b6000828152600360209081526040918290209151610c3891849101611549565b60408051601f198184030181529190528051602091820120825460018101845560009384529190922001555050565b6040805160a0810182523381526020808201858152600093830184905260608301849052841515608084015260028054600181018255945282517f405787fa12a823e0f2b7631cc41b3ba8828b3321ca811111fa75cd3aa3bb5ace600490950294850180546001600160a01b0319166001600160a01b039092169190911781559051805193949193610d22937f405787fa12a823e0f2b7631cc41b3ba8828b3321ca811111fa75cd3aa3bb5acf909301929190910190610f4a565b506040820151600282015560608201516003909101805460809093015115156101000261ff00199215159290921661ffff19909316929092171790555050565b610d6a610ddb565b6001600160a01b038116610dcf5760405162461bcd60e51b815260206004820152602660248201527f4f776e61626c653a206e6577206f776e657220697320746865207a65726f206160448201526564647265737360d01b6064820152608401610248565b610dd881610e35565b50565b6000546001600160a01b031633146104d05760405162461bcd60e51b815260206004820181905260248201527f4f776e61626c653a2063616c6c6572206973206e6f7420746865206f776e65726044820152606401610248565b600080546001600160a01b038381166001600160a01b0319831681178455604051919092169283917f8be0079c531659141344cd1fd0a4f28419497f9722a3daafe3b4186f6b6457e09190a35050565b828054610e9190611348565b90600052602060002090601f016020900481019282610eb35760008555610f00565b82601f10610ec45780548555610f00565b82800160010185558215610f0057600052602060002091601f016020900482015b82811115610f00578254825591600101919060010190610ee5565b50610f0c929150610fbe565b5090565b508054610f1c90611348565b6000825580601f10610f2c575050565b601f016020900490600052602060002090810190610dd89190610fbe565b828054610f5690611348565b90600052602060002090601f016020900481019282610f785760008555610f00565b82601f10610f9157805160ff1916838001178555610f00565b82800160010185558215610f00579182015b82811115610f00578251825591602001919060010190610fa3565b5b80821115610f0c5760008155600101610fbf565b60008060408385031215610fe657600080fd5b50508035926020909101359150565b60005b83811015611010578181015183820152602001610ff8565b8381111561101f576000848401525b50505050565b60006020808301818452808551808352604092508286019150828160051b87010184880160005b838110156110d757888303603f19018552815180516001600160a01b031684528781015160a0898601819052815190860181905260c0919061109381848901848e01610ff5565b89840151878b01526060808501511515908801526080938401511515938701939093525095880195601f909101601f1916909301909201919086019060010161104c565b509098975050505050505050565b6000602082840312156110f757600080fd5b81356001600160a01b038116811461110e57600080fd5b9392505050565b60006020828403121561112757600080fd5b5035919050565b6020808252825182820181905260009190848201906040850190845b818110156111665783518352928401929184019160010161114a565b50909695505050505050565b634e487b7160e01b600052604160045260246000fd5b604051601f8201601f1916810167ffffffffffffffff811182821017156111b1576111b1611172565b604052919050565b600067ffffffffffffffff8211156111d3576111d3611172565b50601f01601f191660200190565b600082601f8301126111f257600080fd5b8135611205611200826111b9565b611188565b81815284602083860101111561121a57600080fd5b816020850160208301376000918101602001919091529392505050565b6000806040838503121561124a57600080fd5b82359150602083013567ffffffffffffffff81111561126857600080fd5b611274858286016111e1565b9150509250929050565b8015158114610dd857600080fd5b6000806040838503121561129f57600080fd5b823567ffffffffffffffff8111156112b657600080fd5b6112c2858286016111e1565b92505060208301356112d38161127e565b809150509250929050565b6020808252600d908201526c092dcecc2d8d2c84092dcc8caf609b1b604082015260600190565b634e487b7160e01b600052601160045260246000fd5b60008282101561132d5761132d611305565b500390565b634e487b7160e01b600052603260045260246000fd5b600181811c9082168061135c57607f821691505b6020821081141561137d57634e487b7160e01b600052602260045260246000fd5b50919050565b600060001982141561139757611397611305565b5060010190565b6000602082840312156113b057600080fd5b815161110e8161127e565b6020808252601690820152752932b9ba3934b1ba32b2103a379036b2b6b132b9399760511b604082015260600190565b634e487b7160e01b600052603160045260246000fd5b600082601f83011261141257600080fd5b8151611420611200826111b9565b81815284602083860101111561143557600080fd5b611446826020830160208701610ff5565b949350505050565b60006020828403121561146057600080fd5b815167ffffffffffffffff8082111561147857600080fd5b908301906040828603121561148c57600080fd5b6040516040810181811083821117156114a7576114a7611172565b6040528251828111156114b957600080fd5b6114c587828601611401565b8252506020830151828111156114da57600080fd5b6114e687828601611401565b60208301525095945050505050565b60008351611507818460208801610ff5565b605f60f81b9083019081528351611525816001840160208801610ff5565b01600101949350505050565b6000821982111561154457611544611305565b500190565b6000825161155b818460208701610ff5565b919091019291505056fea26469706673582212204990548f7362e0a4e622978bbf0b44904b03efcd47172d3399e064871475378a64736f6c634300080b0033",
  "linkReferences": {},
  "deployedLinkReferences": {}
}